:020000040800F2
:100000004008002045010008F3120008E311000831
:10001000F1120008F1010008D114000800000000EE
:100020000000000000000000000000006114000853
:100030002B02000800000000F512000863140008FD
:100040005F0100085F0100085F0100085F01000810
:100050005F0100085F0100085F0100085F01000800
:100060005F0100085F0100085F0100085F010008F0
:100070005F010008F50100085F0100085F0100084A
:100080005F0100085F0100085F0100085F010008D0
:100090005F0100085F0100085F0100085F010008C0
:1000A0005F0100085F0100085F0100085F010008B0
:1000B0005F0100085F0100085F0100085F010008A0
:1000C0005F0100085F0100085F0100085F01000890
:1000D0005F0100085F0100085F0100085F01000880
:1000E0005F0100085F0100085F0100085F01000870
:1000F0005F0100085F0100085F0100085F01000860
:100100005F0100085F0100085F0100085F0100084F
:100110005F0100085F0100085F0100085F0100083F
:100120005F0100085F0100085F0100085F0100082F
:10013000DFF80CD000F04AF800480047B120000872
:10014000400800200648804706480047FEE7FEE7D3
:10015000FEE7FEE7FEE7FEE7FEE7FEE7FEE7FEE777
:10016000CF140008310100080649074A08685043C7
:1001700043F23902104408604008704701490860A2
:10018000704700000C0100206D4EC641D2B201E064
:1001900000F8012B491EFBD270470022F6E710B58C
:1001A00013460A4604461946FFF7F0FF204610BDE5
:1001B00010B54843044601F0D5FF002805D00021C2
:1001C000002C02D0641E0155FAE710BD064C074D05
:1001D00006E0E06840F0010394E807009847103417
:1001E000AC42F6D3FFF7A8FF883B0008A83B000805
:1001F000FEE70000014800F041B800007001002057
:1002000030B590F840500124AC40C56B6C60046878
:1002100063604368102B036803D099600068C26074
:1002200030BD9A600068C16030BD704772B6FEE7AD
:1002300010B590F821100022022905D00421816315
:1002400080F82020012010BD01680B6823F00E0308
:100250000B6001680B6823F001030B6090F84030DD
:10026000C46B012101FA03F3636080F8211080F868
:100270002020104610BD90F8210070472DE9F05F56
:10028000C16B0A6801680B68046C4FF0040808FA37
:1002900004F8844D844E854FDFF814C2DFF81492C1
:1002A000DFF814A2DFF814B2DFF814E218EA020F44
:1002B00065D05FEA437862D50A68920603D40A687B
:1002C00022F004020A60DFF8F0814FF480620168D6
:1002D00008F1140813011402414524D9A9420DD094
:1002E000B1420FD0B9421AD0614515D0494515D059
:1002F000514501D1120312E0594501D104220EE00B
:10030000714501D140220AE06D4D1435A94206D055
:100310006B4A2832914201D11A4600E022466749D1
:10032000091F0A6029E0A94213D0B14215D0B94291
:1003300020D061451BD049451BD0514502D14FF417
:10034000800217E0414502D14FF0806212E059452A
:1003500001D104220EE0714501D140220AE0584D3E
:100360001435A94206D0564A2832914201D11A4684
:1003700000E022464B4908394A60C16A71E04FF0FB
:10038000020808FA04F818EA020F70D05FEA8378CE
:100390006DD50A68920606D40A6822F00A020A603D
:1003A000012180F82110DFF810814FF400720168FC
:1003B00008F1140813011402414524D9A9420DD0B3
:1003C000B1420FD0B9421AD0614515D0494515D078
:1003D000514501D1120312E0594501D102220EE02C
:1003E000714501D120220AE0354D1435A94206D0CD
:1003F000334A2832914201D11A4600E022462F4961
:10040000091F0A6029E0A94213D0B14215D0B942B0
:1004100020D061451BD049451BD0514502D14FF436
:10042000001217E0414502D14FF0007212E0594529
:1004300001D102220EE0714501D120220AE0204DB7
:100440001435A94206D01E4A2832914201D11A46DB
:1004500000E02246134908394A60002180F8201044
:10046000816A00291CD0BDE8F05F0847FFE7082536
:10047000A540154214D01A0712D50A6822F00E02C0
:100480000A6090F84020C36B012101FA02F25A6021
:10049000816380F82110002180F82010016BE0E7D3
:1004A000BDE8F09F080002401C00024030000240FE
:1004B00044000240580002406C0002400804024020
:1004C0001C04024030B560B11A4B026814219A42F4
:1004D00009D2194B1344B3FBF1F1890001641749A8
:1004E0000AE0012030BD134B5B421344B3FBF1F132
:1004F000890001640F490839C163022180F8211085
:10050000136843F6F0718B43F0E901142143D0E9FD
:1005100002452C43214304692143446921438469F2
:100520002143194311600021416301224277017781
:10053000084630BD08040240F8FFFDBF000002403D
:1005400070B5044690F82000002501280CD0012049
:1005500084F8200094F821600020012E06D084F851
:1005600020000225284670BD022070BD022684F8B6
:100570002160A0632068066826F001060660204618
:10058000FFF73EFEE06A00282068016802D041F0D3
:100590000E0106E021F0040101602068016841F0CD
:1005A0000A0101602068016841F001010160D9E79A
:1005B00070B5044600F010F90546601C02D00448EE
:1005C0000078044400F008F9401BA042FAD370BD43
:1005D000FC0000202DE9F84FDFF8C891002409F154
:1005E000040A0AF1040B23460F270BF1040ED1E095
:1005F0000125A54006EA0502AA4276D1DFF8A8C186
:100600004E68A6EB0C0866452BD00DDC032E34D0CB
:1006100005DC36B3012E19D0022E2FD11BE0112E8E
:1006200016D0122E2AD119E0B8F5881F19D006DC91
:10063000B8F5803F15D0B8F5801F1FD111E0B8F58F
:10064000001F0ED0B8F5041F18D10AE0CB6815E0E2
:10065000CB681B1D12E0CB6808330FE0CB680C336E
:100660000CE08B682BB1012B4FF0080303D04561E0
:1006700004E0042302E0056100E00023FF2A01D822
:10068000064601E000F104064FEA840501D9A5F110
:100690002005D6F8008007FA05FC28EA0C0803FAC2
:1006A00005F548EA0508C6F800804D68ED0070D5EC
:1006B0003E4DAE6946F00106AE61AD6924F0030619
:1006C00005F0010500953A4D06EB050CDCF80850E5
:1006D000A607360F07FA06F825EA0805DFF8D480E2
:1006E000404503D14FF0000825E052E0DFF8C88014
:1006F000404502D14FF001081DE0DFF8C0804045C1
:1007000002D14FF0020816E0DFF8B480404502D174
:100710004FF003080FE0DFF8AC80404502D14FF006
:10072000040808E0DFF8A080404502D14FF005083A
:1007300001E04FF0060808FA06F848EA0508CCF888
:1007400008804D68D9F80060ED034D4601D5164389
:1007500000E096432E604D68DAF80060AD03554620
:1007600001D5164300E096432E604D68DBF800602B
:10077000ED025D4601D5164300E096432E604D68BC
:10078000DEF80060AD02754601D5164300E09643E1
:100790002E60641C0A681646E2407FF429AFBDE86B
:1007A000F88F00000004014000001110001002400A
:1007B0000000014000080140000C01400010014011
:1007C0000014014000180140001C01400AB1016101
:1007D00070470904FBE7000001488068704700008B
:1007E000FC00002002488168027811448160704753
:1007F000FC000020074810B5016841F010010160BD
:10080000032000F075F8002000F006F800F024F84E
:10081000002010BD0020024070B50D4D04464FF47D
:100820007A712878B1FBF0F00A490968B1FBF0F061
:1008300000F0C3FC48B9102C07D200222146501EFC
:1008400000F036F800206C6070BD012070BD000023
:10085000FC000020080100200C4808B5816941F027
:1008600001018161816901F001010091C16941F0DB
:100870008051C161C06900F0805000900448416817
:1008800021F0E06141F00071416008BD00100240BC
:1008900000000140002809DB00F01F020121914007
:1008A0004009800000F1E020C0F80011704700000E
:1008B000F0B40E4B1B680C46C3F30223C3F10705CB
:1008C000042D00D90425191D072901D2002300E0B9
:1008D000DB1E012606FA05F1491E214099409E4083
:1008E000761E16403143F0BC01F0ECB80CED00E090
:1008F000064900F0070208684FF6FF03184040EA77
:100900000220034A10430860704700000CED00E02D
:100910000000FA052DE9F0470F46050061D0434E6F
:10092000306800F00700B84209D2306820F00700B4
:1009300038433060306800F00700B84251D1286871
:100940003B4C810712D5400703D5606840F4E06056
:1009500060602878000703D5606840F460506060EC
:100960006068A96820F0F000084360602878C0073C
:1009700028D06868012810D02168022810D0890783
:1009800000292EDA616821F0030101436160FFF75D
:1009900023FF804641F288390DE021688903EFE7A3
:1009A0008901EDE7FFF718FFA0EB0801494502D9DF
:1009B0000320BDE8F0876068696800F00C00B0EBC8
:1009C000810FEFD1306800F00700B8420BD93068D2
:1009D00020F0070038433060306800F00700B8426C
:1009E00001D00120E5E72878400705D56068E9686F
:1009F00020F4E060084360602878000706D560684E
:100A0000296920F4605040EAC100606000F018F8E5
:100A10006168084AC1F30311515CC8400649086087
:100A200006480068FFF7F8FE0020C2E700200240F9
:100A300000100240783B000808010020000100205F
:100A400012A185B00FC98DE80F0014A0144A0068E8
:100A500004905168134801F00C03042B10D0082BAC
:100A60000ED1C1F38343C9031DF803000AD55168B1
:100A700004AAC1F34041515C0A4A5043B0FBF1F073
:100A800005B0704708494843FAE70000020304052F
:100A9000060708090A0B0C0D0E0F101001020000CA
:100AA0000010024000127A0000093D002DE9F84FC5
:100AB000040070D02078C04DC00749D06868C0F3EA
:100AC0008100012807D06868C0F38100022809D19D
:100AD0006868C00306D52868800339D56068002897
:100AE000E7D035E06068B0F5803F0BD010B1B0F5CD
:100AF000A02F11D0286820F480302860286820F4C6
:100B0000802002E0286840F480302860606890B15E
:100B1000FFF762FE06460AE0286840F4802028605D
:100B2000F0E700BFFFF758FE801B642873D82868E1
:100B30008003F7D50CE0FFF74FFE064605E000BF47
:100B4000FFF74AFE801B6428F0D828688003F7D49A
:100B500020789A4E80074FF001094FF0000839D5F0
:100B6000686810F00C0F07D06868C0F38100022895
:100B700009D16868C00306D42868800714D52069A5
:100B8000012808D110E02069B0B1C6F80090FFF745
:100B900023FE074605E00AE1FFF71EFEC01B022800
:100BA000C4D828688007F7D52868616920F0F80064
:100BB00040EAC10028600DE0C6F80080FFF70CFE97
:100BC000074604E0FFF708FEC01B022823D8286868
:100BD0008007F7D4207800072CD57948A169D9B1CE
:100BE000C0F80090FFF7F8FD074604E0FFF7F4FDBA
:100BF000C01B02280FD8686A8007F7D571484FF4E8
:100C0000FA510068B0FBF1F0009000BF0098411E5F
:100C10000091FAD20EE080E0C0F80080FFF7DCFD22
:100C2000074604E0FFF7D8FDC01B022875D8686AA4
:100C30008007F7D42078400760D5E8690027C00016
:100C400008D4E86940F08050E861E869012700F0C5
:100C5000805000905C480168C90513D40168834640
:100C600041F480710160FFF7B7FD824606E000BFE6
:100C7000FFF7B2FDA0EB0A0064284ED8DBF80000B5
:100C8000C005F5D5E06801280AD008B1052813D0C1
:100C9000286A20F001002862286A20F0040002E09F
:100CA000286A40F001002862E06841F2883B98B170
:100CB000FFF792FD82460BE0286A40F004002862AC
:100CC000EEE700BFFFF788FDA0EB0A0159455AD8AF
:100CD000286A8007F6D50CE0FFF77EFD824605E026
:100CE000FFF77AFDA0EB0A0159454CD8286A800726
:100CF000F6D41FB1E86920F08050E861E06988B35C
:100D00006968C1F38101022944D00228C6F86080D5
:100D100004D0FFF761FD044638E034E0FFF75CFDE6
:100D2000074604E0FFF758FDC01B02282BD82868AF
:100D30008001F7D4206AB0F5803F05D16868A168CA
:100D400020F4003008436860D4E90801084369686A
:100D500021F4741108436860C6F86090FFF73CFD09
:100D6000044606E025E000BFFFF736FD001B022821
:100D700009D828688001F7D51BE000BFFFF72CFDDC
:100D8000001B022802D90320BDE8F88F28688001E3
:100D9000F4D40EE00128F7D06868226A00F48031AC
:100DA000914204D1616A00F47010884201D00120A0
:100DB000EAE70020E8E7000000100240000042429D
:100DC00080044242080100200070004070B50446D3
:100DD000806C002538B1FFF72BFA20B1606D40F030
:100DE000100060650125E06C38B1FFF721FA20B1F1
:100DF000606D40F01000606501252068416821F0B9
:100E000003014160012084F85100284670BD7047FD
:100E100070B5040009D0606A002540B125616561A4
:100E2000A56294F8510040B10CE0012070BD6068EB
:100E3000B0F5827FF4D0E561F2E784F850502046A7
:100E400000F040F8022084F851002068016821F089
:100E500040010160A088218900F4827001F40441FE
:100E60000843A18901F400610843217C01F00201DB
:100E70000843217D01F001010843218B01F4007139
:100E80000843217F01F03801084394F8201001F055
:100E900080010843218D01F4005108432168086056
:100EA000A069042101EA1040216848602068C169F6
:100EB00021F40061C1616565012084F851000020C2
:100EC00070BD000070B586B00025064600950195FE
:100ED0000295039500681B49884231D11A498869F7
:100EE00040F480508861886900F4805004908869DB
:100EF00040F0040088618869694600F004000490AD
:100F0000A020009002200190032003900F48FFF7DB
:100F100061FB104C0E4820601020C4E901058020C0
:100F2000C4E903052020C4E905504FF44050E061B6
:100F30002046FFF7C7FA08B1FFF778F9B464666294
:100F400006B070BD003001400010024000080140B2
:100F500030000240700100202DE9F041044690F875
:100F600050000026012809D0012784F8507094F819
:100F700051000025012804D002264EE00220BDE8E1
:100F8000F08189B182B1032084F851006565216345
:100F9000A286E286A56365642564A587E587A068C7
:100FA000B0F5004F02D00BE0012636E02068016862
:100FB00021F0400101602068016841F48041016036
:100FC000A16C1848C862A16C17488862A16C1748C8
:100FD0000863A06C4563E38E2268216B0C32A06C21
:100FE000FFF7AEFA38B1606D40F010006065012681
:100FF00084F8517011E020680168490603D4016843
:1010000041F0400101602068416841F020014160E9
:101010002068416841F00201416084F85050304638
:10102000ADE700001913000823130008F7120008A9
:101030002DE9F0032A4A0146506881424DD151887A
:10104000092903D9BDE8F003FFF7C0BE9146254F3B
:1010500001EB41023A44182092F801C00724012212
:10106000C02507F11B03F82602FA04F81CEA080F52
:1010700001D11D5400E01E54401C641E64B2C0B275
:10108000002CF1DA01EB410C072417F80CC000BF6B
:1010900002FA04F81CEA080F01D11D5400E01E54A6
:1010A000401C641E64B2C0B2002CF1DA01EB410CAA
:1010B0006744072497F8027002FA04FC17EA0C0F41
:1010C00001D11D5400E01E54401C641E64B2C0B225
:1010D000002CF1DA491CA9F80210BDE8F0037047B2
:1010E00000000020B40100202DE9F003304D01463E
:1010F0006868814212D129782E4B012231B169886A
:1011000009290ED9BDE8F003FFF760BE00200146B3
:101110001954401CC0B21828FAD32A70BDE8F00355
:101120007047244FA94601EB41051B3F3D44002079
:1011300095F801C00724C0255FF0F80602FA04F80C
:101140001CEA080F01D11D5400E01E54401C641E0F
:1011500064B2C0B2002CF1DA01EB410C072417F89D
:101160000CC000BF02FA04F81CEA080F01D11D549C
:1011700000E01E54401C641E64B2C0B2002CF1DAC0
:1011800001EB410C6744072497F8027002FA04FC53
:1011900017EA0C0F01D11D5400E01E54401C641EC0
:1011A00064B2C0B2002CF1DA491CA9F80210B5E70C
:1011B00000000020CF010020704710B5401EB0F1A4
:1011C000807F01D3012010BD4FF0E02460610F212A
:1011D000601700F077FC0020A0610720206100204C
:1011E00010BDFEE7094808B5416941F001014161C0
:1011F0004069002200F00100009001210D20FFF75E
:1012000057FBBDE808400D20FFF744BB001002402B
:101210002DE9F04186B00024204800940194029406
:101220000394816941F010018161816901F010012D
:101230000491816941F020018161816901F02001FF
:101240000491816941F0040181618069144F00F0CB
:1012500004004FF400550490002229463846FFF759
:10126000B5FADFF84080002201214046FFF7AEFAD0
:101270000095022601250396CDE9015469463846BA
:10128000FFF7A8F903960095CDE901546946404659
:10129000FFF7A0F906B0BDE8F081000000100240A1
:1012A0000010014000080140104810B50E490160CF
:1012B0004FF48271416000218160C1604FF400727F
:1012C0000161C0E905121022C0E907214162816273
:1012D0000A21C162FFF79CFD002803D0BDE8104041
:1012E000FEF7A4BF10BD000000300140180100202F
:1012F000FEE7FEE7704710B5406A01684A6822F0D1
:1013000003024A60416D41F010014165012180F8FE
:101310005110FFF77CFD10BD10B5406AFFF7E4FEE9
:1013200010BD38B50546446AFFF756FA02462868EC
:101330000068800623D42068416821F020014160C4
:101340002068416821F0020141606421204600F0DC
:101350001AF818B1606D40F020006065A0680021A7
:1013600018B92068C26880680090E186012084F87E
:101370005100606D18B12046FFF749FD38BD204689
:10138000FFF756FE38BD38B50B46009204460022E2
:10139000802100F009F8002804D0606D40F02000A2
:1013A0006065032038BD00002DE9F8431E469146D4
:1013B00088460446089DFFF70FFA401B351AFFF7D1
:1013C0000BFA074625480068C0F3CB30684338E085
:1013D000701C37D0FFF700FAC01BA84203D215B12A
:1013E000009860B32CE02068416821F0E001416082
:1013F0006068B0F5827F0BD1A068B0F5004F02D0D5
:10140000B0F5806F04D12068016821F040010160CF
:10141000A06AB0F5005F09D12068016821F400518D
:1014200001602068016841F400510160012084F8E6
:101430005100002084F850000320BDE8F883002507
:10144000401E00902068816838EA010004D0002125
:101450004945BDD10020F0E70121F9E7080100204E
:10146000704710B5FFF7BEF9BDE81040FFF7A4BE06
:1014700030B58FB028216846FEF78FFE14210AA8E8
:10148000FEF78BFE01210804CDE900100024029430
:1014900002250491CDE907504FF4E0100990684609
:1014A000FFF704FB08B172B6FEE70F20CDE90A058D
:1014B0004FF48060CDE90C4002210AA80E94FFF79A
:1014C00029FA002801D072B6FEE70FB030BD704790
:1014D000FEE7000070B5144C6078A178084322D074
:1014E000002516E0A06805EB450600EB46100168F4
:1014F00069B9017AC9070AD0E570C06D8047A06854
:1015000000EB4610C168491CC160012020706D1CB1
:10151000ADB2A0888542E5D32078002803D000F042
:1015200089FA0020207070BD08000020F0B5DDE9C8
:10153000055481B3B0F5B47F01D340F267103C2667
:10154000B0FBF6F7B0FBF6FC06FB170E01FB0EF046
:10155000B0FBF6F0C0F1FF005043C71700EB176077
:10156000C0F30F27CEF13B00484390FBF6F0C0F1EB
:10157000FF005043C61700EB1660C0F30F26C1F101
:10158000FF005043000ABCF1050F19D2DFE80CF050
:1015900006090D1115001A702A700CE01A702E70D1
:1015A00001E01F702A702070F0BD18702A7026703C
:1015B000F0BD18702F702270F0BD1E702870FAE711
:1015C0001A7028702770F0BD2DE9F05F040013D069
:1015D000042C01D9092C0FD800256021FEF7E8FD65
:1015E000060009D0DFF898A1AE464FF00A0BDAF8F2
:1015F000080020B100209BE00120BDE8F09FAAF880
:101600000440002016E000EB400106EB4111962259
:101610008A82BBFBF4F22A44521E81F808E092B29F
:101620008D80CA80092A01D30823CB80521C401C1C
:1016300095B280B2A042E6D39AE000BF906809EB71
:10164000490100EB4110036806EB41100360BBFB4E
:10165000F4F32B445B1E9BB28580C380092B04D31B
:101660009768082507EB4117FD805B1C9DB2134668
:10167000926802EB4112127A02F0010202729A6839
:1016800002EB4112527A42729A6802EB4112927A4C
:1016900002F0010282729A6802EB4112D268C260C3
:1016A0009A6802EB4112126902619A6802EB4112D8
:1016B000928A8282DAF80830002203EB411C00BFD4
:1016C0000CEB820300EB82079B69BB6102EB4203D8
:1016D000C7186344521CB3F83C80A7F83C8093F8C9
:1016E0003E30D2B287F83E30092AE9D3DAF8083022
:1016F00003EB411393F8573080F85730DAF808308D
:1017000003EB4113B3F8583020F8583FDAF80830AB
:1017100003EB411393F85A3003F001038370DAF8B6
:10172000082002EB4111C96D416009F1010080B24E
:101730008146BAF804005246844200D82046484503
:101740003FF67CAF90881146844210D904EB4400E8
:1017500006EB4010962220F84C2CBBFBF4F200F86C
:1017600057EC00F858EC20F85C5D082242808C8031
:101770005446DAF8080000F061FC0020A6603CE75F
:1017800008000020F0B58842DDE9057601D2054663
:1017900000E00D46954200D31546884201D9044623
:1017A00000E00C46944200D81446651B34702D04AA
:1017B0002D0C4FF0000613D094B164266E43B6FB97
:1017C000F4F6C6EB062C6426BCFBF6FC87F800C0DA
:1017D000A04208D1881A6421484390FBF5F013E039
:1017E0003E701E80F0BDA14207D1101A642148430B
:1017F00090FBF5F000F5347006E0401A6421484390
:1018000090FBF5F000F5B46000B2C0EB0010800072
:1018100000B290FBF6F000B2002802DA00F5B470D6
:1018200000B21880F0BD00002DE9F0470D461249C6
:101830008A88904202D30120BDE8F087002400EBA3
:101840004007C5F30728C5F30746894608E020444A
:10185000EBB200B24246314600F026F9641CA4B255
:10186000D9F8080000EB4710C1888088091A491C84
:10187000A142ECDC0020DFE7080000202DE9F04762
:10188000134D89461F46A9889046884202D30120FD
:10189000BDE8F087002400EB40060BE000EB4610AB
:1018A0003B4680884246204400B2494600F0FCF89E
:1018B000641CA4B2E87800EB4001A86800EB411179
:1018C000CA888988511A491CA142E7DC0020DFE759
:1018D0000800002030B50C04074D44EA02241C43E4
:1018E00045F8204000EB400405F124000155204458
:1018F0004270837030BD00000002002070B5184AAD
:101900009388984201D3012070BD926800EB400398
:1019100002EB43100024C4600461114C41720C348A
:10192000104D54F82110C165002005F1240402EB8C
:10193000431200BF02EB800355F82010996100EBC1
:101940004003D118E65C234401F83C6F5E784E708A
:10195000401C9B78C0B28B700928EBD3002070BD6F
:1019600008000020000200202DE9F0410E4F06463D
:101970001446B8880D46864205D2082D03D2082C9D
:1019800001D2A54202D90120BDE8F08100213046F4
:10199000FFF74AFFB96806EB460001EB401085806F
:1019A000C4800020F0E7000008000020084A938867
:1019B000984201D3012070470A2900D20A21926877
:1019C00000EB400002EB40108182002070470000D5
:1019D0000800002009498A88904201D301207047FD
:1019E0008B6800EB400003EB40100022C2600261F4
:1019F0000260012202724A70002070470800002035
:101A0000064900EB400000220B5C084442EA034216
:101A10004178807842EA012108437047B4010020F0
:101A200000487047B4010020014948607047000039
:101A30000000002010B50B4C00210B4A6180217082
:101A400008461154401CC0B23028FAD3302206494F
:101A50006068FFF781FA6068806CFEF70CFC012873
:101A6000F9D110BD00000020CF010020092808D2C4
:101A700000EB400203480B0C835410440B0A4370E4
:101A800081707047B401002003B5092809D20549C7
:101A900000EB40000844BDF8041001809DF80610DA
:101AA00081700CBDB401002010B5092806D200EBEE
:101AB00040040348015520444270837010BD00006B
:101AC000B40100200907090E002804DB00F1E02022
:101AD00080F80014704700F00F0000F1E02080F85B
:101AE000141D704702E008C8121F08C1002AFAD16D
:101AF00070477047002001E001C1121F002AFBD18E
:101B00007047000070B5124C1546E278A66802EBEB
:101B1000420306EB43131B7BDB0700D0084601465C
:101B20001046FFF781FEE078A16800EB400001EB72
:101B30004010017BC90703D035B1818A143901E017
:101B400015B11421016070BD818A4908FAE70000CF
:101B5000080000202DE9F0473D4C89469246E17887
:101B6000A26801EB410102EB4113198ADF888AB2B6
:101B70009988551C7E1A761C95FBF6FC06FB1C55B5
:101B8000ADB205F1010C9CFBF6F806FB18C69B7A7A
:101B9000B6B2DB071AD0B91A0AB201461046FFF7EF
:101BA00065FFE078A16800EB400001EB401049467A
:101BB000C088401B00B2FFF759FFE078A16800EB36
:101BC000400001EB4010C088801B19E011440AB2AC
:101BD00001461046FFF74AFFE078A16800EB40009D
:101BE00001EB401049468088284400B2FFF73EFFD1
:101BF000E078A16800EB400001EB401080883044A1
:101C000000B25146FFF732FFFDB10020E178A26833
:101C100001EB410102EB4111092381F85A00E07800
:101C200000EB4001A06800EB41110A69521CB2FBB5
:101C3000F3F503FB15220A61E17801EB410100EBAA
:101C40004110818A0160BDE8F0870120DEE70000D5
:101C500008000020F0B5002A34D0FF2A33D04FEA24
:101C6000106CC0F30747C0F3072600F0FF0EC2F167
:101C7000FF000D0EC1F30744C1F30723554354433E
:101C800053430CFB005507FB004406FB0033C9B26D
:101C900051430EFB00104FEAE57CE717DE17C11732
:101CA00005EB1C6504EB176403EB166300EB116096
:101CB0002D1224121B120112280640EA044040EAA9
:101CC00003200843F0BD0846F0BDC0F1FF005528D1
:101CD00005D200EB4001A0EB8000FF3015E0AA2800
:101CE00009D25538C0B2A0EB800100EB4000FF31B3
:101CF00041EA00207047AA38C0B2A0EB80014FF43F
:101D00007F4202EB012100EB400041EA00407047B6
:101D10002DE9F0411E4C0F46E178A36801EB41012B
:101D200003EB4111CD888B880969EE1A06F1010C8D
:101D30008C4507D90AB1691A00E019440AB2014674
:101D4000104607E0881B401E0AB1281A00E018441C
:101D500000B23946FFF78AFEE078A16800EB400048
:101D600001EB4010C2888388D21A52000369921C8A
:101D70005B1CB3FBF2F502FB15320261E07800EB6D
:101D8000400001EB4010818A0160BDE8F081000055
:101D9000080000202DE9FE4F38480227384C90F803
:101DA00002900830A16890F80280E07800EB4000D3
:101DB00001EB4011C869C0F307420292C0F3072249
:101DC000C0B2CDE900028D884CE028B20646FFF78C
:101DD00017FE87B1C0F3074BC0F3072AC3B20298BE
:101DE0000099B0EB0B020198A1EB0301A0EB0A00F4
:101DF00009D4944609E04FF07F3101EA50013046A2
:101E0000FFF734FE2CE0C2F1000CBCF1030F04DB41
:101E100042FA09FC42FA08F262449646002801DBC5
:101E2000024600E04242032A04DB40FA09FC40FA81
:101E300008F06044002901DB0A4600E04A42032A18
:101E400004DB41FA09FC41FA08F1614450441944A9
:101E5000C2B2CBB20BEB0E00C1B23046FFF724FE8C
:101E60006D1CADB2E078A16800EB400001EB4010C2
:101E7000C088A842A9D2BDE8FE8F0000683B0008D8
:101E8000080000202DE9F0472749CA788B6802EB4B
:101E9000420203EB42139A69C2F30726D5B2C2F39A
:101EA0000747AE4201D22A4600E03246BA4205D97F
:101EB000AE4201D22A4602E0324600E03A4692FBA8
:101EC000F0F000F0FF099C88884616E0FEF74CF918
:101ED00090FBF9F209FB1200291A00D50021CBB2C0
:101EE000311A00D50021CAB2381A00D50020C1B27B
:101EF00020B2FFF7D9FD641CA4B298F80310D8F8FB
:101F0000080001EB410100EB4110C088A042DDD286
:101F100098F80310D8F8080001EB410100EB4110DC
:101F2000818A0160BDE8F087080000202DE9F041BA
:101F30000746FFF72FFFFFF773FD3F4C01460322D3
:101F4000E078A36800EB400003EB40139888DB883F
:101F500000FB022003EB430380B29DB20EE0831A24
:101F60008618CB5C8E5D9B0803EB96030E5C3344B6
:101F7000FF2B00D9FF230B54401C80B2A842EED3A4
:101F8000A0780A264FF00005D0BB00BFFEF7ECF8A2
:101F900090FBF6F106FB1100A8B9FEF7E5F8014643
:101FA000E078A26800EB400002EB4010C288808815
:101FB000121A521C91FBF2F302FB1311084400B2F7
:101FC0003946FFF753FD6D1C2D042D0CDED029E0A2
:101FD000FEF7CAF80146E078A26800EB400002EB89
:101FE0004010C2888088121A521C91FBF2F302FB47
:101FF0001311084400B23946FFF738FD6D1CADB22D
:10200000E078A16800EB400001EB4010C1888088B7
:10201000081A401C132802DD90FBF6F000E00120B6
:10202000A842D5DCE078A16800EB400001EB40104D
:10203000818A0160BDE8F0810800002010B5002809
:1020400021D0114B0022001F196803E0814203D800
:102050000A4649680029F9D152B11368841A9C4292
:1020600004D1006818441060104602E0506000E09F
:10207000186039B102680B1A934203D10B681A44F5
:1020800002604968416010BD1001002010B504468F
:10209000FEF76AF8C1B2601A00D54042C0B2C0F182
:1020A000FF02904200D310462A28F1D3084610BD03
:1020B000FEF7A0FBFFF7DCF9FFF7AAF8FFF792F8AD
:1020C000FFF7F2F82648FFF7AFFC0120FFF77CFA94
:1020D00000210846FFF76AFC002107220846FFF7A7
:1020E00043FC00231A46FF211846FFF7F3FB0023A9
:1020F000FF2219460120FFF7EDFB0022FF231146C6
:102100000220FFF7E7FBFF231A4600210320FFF719
:10211000E1FBFF231A4600210420FFF7DBFBFF232E
:102120001A4600210520FFF7D5FBFF231A460021A0
:102130000620FFF7CFFBFF231A4600210720FFF7F9
:10214000C9FB00210120FFF7D9FB0020FFF742FC6B
:10215000C820FEF72DFA00BFFFF7BCF9FCE700002E
:1021600018010020F0B50B30154D20F007010024B8
:10217000144A0FE003688B420BD38B4205D95E1AD9
:1021800043184768C3E9006700E04368136002C072
:1021900004E0021D10680028ECD12046002802D17E
:1021A000286808B10020F0BD064A07481060074AB9
:1021B000121A22F00702C0E9002401202860D7E7A4
:1021C00014010020100100204402002040040020DF
:1021D0000548C178806801EB410100EB41101830DF
:1021E00007C8FFF7B7BC000008000020002001F07E
:1021F00065BA000005480022C178806801EB410102
:1022000000EB4110C1698069FFF77CBC0800002029
:102210000B4B10B5D878996800EB400001EB4010EB
:10222000007BFFF752FDD9789A6801EB410102EB80
:1022300041110022C969BDE81040FFF763BC0000EE
:102240000800002070B52A4DE878AA6800EB40012C
:1022500002EB41163369FF2B02D9A3F2FF135B4255
:102260000F2B03D0192B04D8262417E040F2CA34D0
:1022700014E0322B01D8242410E04B2B01D81C246D
:102280000CE0642B01D8142408E07D2B01D80E2427
:1022900004E0962B01D80B2400E00A2416F83C1F1A
:1022A0007278B67859435A435E43C1F30721C2F3AB
:1022B0000722C6F30723FFF7E1FAE87800EB4001B5
:1022C000A86800EB41121169891C1161EA78B1F527
:1022D000F97F02EB420200EB421201D30F211161A0
:1022E000E97801EB410100EB4110046070BD000092
:1022F0000800002005480022C178806801EB4101F8
:1023000000EB411011468069FFF724BC0800002053
:102310000E4810B5C178806801EB410100EB411017
:10232000C1888288891A4FF48072491C92FBF1F1AE
:10233000027B0069C9B200FB0120C0B2FFF7C5FCF7
:102340000022BDE810401146FFF704BC0800002041
:102350000648C178806801EB410100EB41106FF045
:102360007F4180690A46FFF7F5BB000008000020A6
:102370002DE9F041384C0922E078A16800EB4000DB
:1023800001EB4010C1688688B1FBF2F302FB131524
:1023900005E0816930B2FFF769FB761CB6B2E078E0
:1023A000A16800EB400001EB4010C188B142F0D2BF
:1023B000E178A26801EB410102EB4111082D898A05
:1023C00035D2E90701D01E213CE00569C388828827
:1023D000A9B29E1A6D1C761CB5FBF6F706FB1755C5
:1023E000807AADB2C0076FF07F460DD0581A00B2A8
:1023F0003146FFF73BFBE078A16800EB400001EBC2
:102400004010C088401B0CE0501800B23146FFF766
:102410002DFBE078A16800EB400001EB40108088C4
:10242000284400B23146FFF721FB14210AE0C2889C
:102430008388D21A0369521C5B1CB3FBF2F502FBC2
:1024400015320261E078A26800EB400002EB401018
:102450000160BDE8F0810000080000202DE9F04196
:102460004C4CE078A16800EB400001EB4010C168E3
:102470000920B1FBF0F200FB1216002512E000BFAC
:1024800090F85700FFF721FC0146E078A26800EBC6
:10249000400002EB40108088284400B2FFF7E6FAC3
:1024A0006D1CADB2E078A16800EB400001EB40107C
:1024B0000269AA42E4D8E278082E02EB420201EB5C
:1024C0004212958A40D20169C58882888BB2AD1AC2
:1024D000491C6D1CB1FBF5F705FB17118DB2F10717
:1024E0001DD090F85700FFF7F0FB0146E078A26896
:1024F00000EB400002EB40108088184400B2FFF768
:10250000B5FAE078A16800EB400001EB4010002133
:102510008088284400B2FFF7A9FA1E2531E0D018C0
:102520006FF07F4600B23146FFF7A0FAE078A1686D
:1025300000EB400001EB401031468088284400B297
:10254000FFF794FA14251CE0C2888388D21A036925
:10255000521C5B1CB3FBF2F602FB16320261E07800
:1025600000EB400001EB40105AB990F85700FFF71C
:102570008DFDE178A26801EB410102EB411181F888
:102580005700E078A16800EB400001EB40100560C7
:10259000BDE8F081080000200F4810B5C1788068C0
:1025A00001EB410100EB4110C1888288891A4FF488
:1025B0008072491C92FBF1F1027B0069C9B200FBF9
:1025C0000120C0B2FFF781FB6FF07F41BDE81040F2
:1025D0000A46FFF7BFBA00000800002070B51B4B89
:1025E0000924D878996800EB400001EB401001699C
:1025F0000A04491CB1FBF4F504FB1515C188848855
:10260000120A091B491C92FBF1F1007B0844C0B27D
:10261000FFF75BFB0446D878996800EB400001EBBC
:102620004010C1888288007B891A2A02491C92FBCB
:10263000F1F10844C0B2FFF748FB2146BDE8704005
:1026400002466FF07F40FFF785BA000008000020C7
:1026500010B5134CE078A16800EB400001EB40108E
:10266000016959B990F85700FFF710FDE178A268A9
:1026700001EB410102EB411181F85700E078A168BC
:1026800000EB400001EB401090F85700FFF71DFBF6
:102690006FF07F41BDE810400A46FFF75BBA0000CB
:1026A000080000200648C178806801EB410100EB7A
:1026B000411081696FF07F400A46FFF74BBA000076
:1026C0000800002000226FF07F414FF47F0001F0EE
:1026D00077B8000010B5164CE078A16800EB400018
:1026E00001EB4010C1888288891A0269491CB2FB3B
:1026F000F1F301FB132159B990F85700FFF7C6FC1D
:10270000E178A26801EB410102EB411181F8570029
:10271000E078A16800EB400001EB401090F8570012
:10272000FFF7D3FABDE8104001220146FFF7F0BAE7
:102730000800002005480022C178806801EB4101B3
:1027400000EB4110C1698069FFF7E2BA0800002080
:1027500005480022C178806801EB410100EB41107F
:10276000D0E90610FFF7D4BA0800002010B51A4CC3
:10277000E078A16800EB400001EB4010C18882883E
:10278000891A0269491CB2FBF1F301FB132159B903
:1027900090F85700FFF77AFCE178A26801EB41015D
:1027A00002EB411181F85700E078A16800EB40008E
:1027B00001EB401090F85700FFF787FA002201461E
:1027C000FFF7A6FAE078A16800EB400001EB4010AB
:1027D000818A016010BD0000080000200548012228
:1027E000C178806801EB410100EB4110C16980694B
:1027F000FFF78EBA0800002005480122C1788068E2
:1028000001EB410100EB4110D0E90610FFF780BA5F
:102810000800002070B5FFF7BDFA174CE078A168FA
:1028200000EB400001EB4011887AC00703D0C88854
:102830000A8A801A02E088880A8A104400B28969EC
:10284000FFF714F9E078A16800EB400001EB4010BD
:10285000C2888388D21A0369521C5B1CB3FBF2F551
:1028600002FB15320261E07800EB400001EB401002
:10287000818A016070BD00000800002070B52C4DF9
:10288000E878A96800EB400001EB4010C28883881B
:10289000D21A4FF0FF3303EB420203699A4201D28E
:1028A00000220261E87800EB400001EB40108488D0
:1028B00005E0C16920B2FFF7D9F8641CA4B2E8783A
:1028C000A96800EB400001EB4010C188A142F0D89C
:1028D000E978AA6801EB410102EB41118288C988BD
:1028E0000369891A5C1A00D564428169101900B223
:1028F000FFF7BCF8E878A96800EB400001EB401056
:102900008169C088001B00B2FFF7B0F8E87800EBDF
:102910004001A86800EB41110A69521C0A61E9787C
:1029200001EB410100EB4110818A016070BD0000A4
:102930000800002070B5224CE078A16800EB400050
:1029400001EB40131869FF2802DDA0F2FF1040429E
:10295000C2B2D3E90601FFF77DF90646E078A16827
:1029600000EB400001EB4010858805E0314628B2BD
:10297000FFF77CF86D1CADB2E078A16800EB400079
:1029800001EB4010C088A842F0D2E07800EB400193
:10299000A06800EB41121169091D1161E278B1F5DF
:1029A000007F02EB420200EB421201D300211161D1
:1029B000E17801EB410100EB4110818A016070BDBB
:1029C000080000200320FFF75DBA0120FFF75ABA84
:1029D0000620FFF757BA00000448C178806801EB71
:1029E000410100EB41108069FFF7A0BA0800002008
:1029F00010B5FDF7B9FBC0B2FFF767F9BDE81040AD
:102A0000FFF794BA70B52F4CE078A16800EB400056
:102A100001EB4010C16881B9858805E0816928B261
:102A2000FFF724F86D1CADB2E078A16800EB400020
:102A300001EB4010C188A942F0D2E078A16800EB18
:102A4000400001EB40118888B1F858208969104492
:102A500000B2FFF70BF8FDF787FB052190FBF1F2C1
:102A600001FB120028BBFDF77FFBE178A26801EBB8
:102A7000410102EB4111CB888D885B1B5B1C90FBF5
:102A8000F3F503FB1500A1F85800E17801EB4101D3
:102A900002EB41118988084400B26FF07F41FEF7D4
:102AA000E5FFE178A26801EB410102EB411114203E
:102AB0000860E078A16800EB400001EB4010818ADB
:102AC000016070BD080000200149024800F066BDA9
:102AD0000030FF008000400070B52F4CE078A16806
:102AE00000EB400001EB4010858805E0816928B2C9
:102AF000FEF7BCFF6D1CADB2E078A16800EB4000B2
:102B000001EB4010C188A942F0D2FDF72DFB052151
:102B100090FBF1F201FB1200022834DA002517E0E5
:102B2000FDF722FBE178A26801EB410102EB4111C4
:102B3000CA888988521A521C90FBF2F302FB1300D8
:102B4000084400B26FF07F41FEF790FF6D1CADB2FC
:102B5000E078A16800EB400001EB4010C18880885C
:102B6000081A401C052803DD032190FBF1F000E06A
:102B70000120A842D4DCE178A26801EB410102EB1C
:102B8000411114200860E078A16800EB400001EBDF
:102B90004010818A016070BD0800002070B56F4C44
:102BA000E078A16800EB400001EB4010018A8DB293
:102BB00081698088284400B2FEF758FFE078A16858
:102BC00000EB400001EB401082888169281D104411
:102BD00000B2FEF74BFFE078A16800EB400001EB8C
:102BE0004010B0F85800A8425AD1FDF7BDFA0621AE
:102BF00090FBF1F201FB120030BBE078A16800EB22
:102C0000400001EB401000218088284400B2FEF70C
:102C10002DFFE078A16800EB400001EB4010C28876
:102C20008188501A401C00EBD07005EB600008440E
:102C300000B20021FEF71AFFE178A26801EB410122
:102C400002EB4111C8200860E078A16800EB400069
:102C500001EB4010C18880880E1A761CFDF784FABB
:102C600006EBD671491090FBF1F201FB1200E178FE
:102C7000A26801EB410102EB4111A1F85800FDF7F8
:102C800073FA4FF4FA6190FBF1F201FB1200E17864
:102C9000A26801EB410102EB411100F57A70086076
:102CA000E078A16800EB400001EB40100021808833
:102CB000284400B2FEF7DAFEE078A16800EB40009D
:102CC00001EB4010C2888188501A401C00EBD07084
:102CD00005EB6000084400B20021FEF7C7FEE07873
:102CE000A26800EB400002EB4011B1F858300869CF
:102CF000834205D900F1010005F10105086105E0F5
:102D000005D2A0F10100A5F101050861ADB2E0789E
:102D100000EB400002EB401081698088284400B23B
:102D2000FEF7A4FEE078A16800EB400001EB401143
:102D3000C8888A888969801A401C00EBD07005EB2E
:102D40006000104400B2FEF791FEE078A16800EB4D
:102D5000400001EB4010818A016070BD0800002036
:102D60002DE9F041FFF716F8274C0125E078A1681E
:102D700000EB400001EB4011CB888E8808699A1B5C
:102D8000571C874206D98A7AD20701D0181A0FE059
:102D900030440DE08F7A4FEA420202F10202FF074F
:102DA000A2EB000002D0181A801C01E0801E304403
:102DB00000B28969FEF75AFEE078A16800EB400096
:102DC00001EB4010C2888388D21A0369521CB3FBFE
:102DD000F2F680F85A50E07800EB400001EB40102A
:102DE000C2888388D21A53000269521CB2FBF3F5E1
:102DF00003FB15220261E07800EB400001EB40107C
:102E0000818A0160BDE8F081080000204FF47F4115
:102E1000080200F0C3BB000070B5124CE078A16856
:102E200000EB400001EB401085880AE0FDF79CF9BB
:102E3000C0B2FEF74AFF014628B2FEF717FE6D1C2E
:102E4000ADB2E078A16800EB400001EB4010C08813
:102E5000A842EBD2E07800EB400001EB4010818A01
:102E6000016070BD0800002070B5304CE078A168AA
:102E700000EB400001EB4010858805E0002128B2FE
:102E8000FEF7F4FD6D1CADB2E078A16800EB4000E8
:102E900001EB4010C088A842F0D2E07800EB40007F
:102EA00001EB40110A208A8AB2FBF0F300FB1320E9
:102EB000C0F1090000EBC00303EB0010C82303EBD3
:102EC00080006423B2FBF3F25200921C96B20A69AE
:102ED00080B2B24202D2D00715D03220E17801EBA5
:102EE0004102A16801EB421213695B1C761CB3FB23
:102EF000F6F506FB15331361E27802EB420201EBB3
:102F00004211086070BD8D8805E0816928B2FEF726
:102F1000ADFD6D1CADB2E078A16800EB400001EBA7
:102F20004010C188A942F0D21420D7E70800002041
:102F300070B51A4CE078A16800EB400001EB40103E
:102F4000007CFEF7C2FE0646E078A16800EB400078
:102F500001EB4010858805E0314628B2FEF786FD7A
:102F60006D1CADB2E078A16800EB400001EB4010B1
:102F7000C088A842F0D2E07800EB4001A06800EBE6
:102F800041110A7C521CD2B20A61E17801EB410185
:102F900000EB4110818A016070BD00000800002034
:102FA00070B500251A4C15E02A0292FBF1F1007C65
:102FB0000844C0B2FEF789FE0146E078A26800EB43
:102FC000400002EB40108088284400B2FEF74EFD1E
:102FD0006D1CADB2E078A26800EB400002EB40103F
:102FE000C1888388C91A491CA942DDDCE17801EB5C
:102FF000410102EB4111097C491CC9B20161E07831
:1030000000EB400002EB4010818A016070BD0000BF
:103010000800002010B5114CE078A16800EB4000DA
:1030200001EB401090F85700FFF730F8E178A26804
:1030300001EB410102EB411181F85700FEF745FE1B
:103040000146E078FEF7F0FBE078A16800EB400075
:1030500001EB4010818A016010BD000008000020D3
:103060000548C178806801EB410100EB41106FF029
:103070007F41806900F092BA080000202DE9F047F6
:10308000394C4FF01C0A0027E078A16800EB4000A3
:1030900001EB40108069C0F30746C0F30729C5B2B1
:1030A00044E0007C384400FB0AF0C0B200F0B8FAFB
:1030B000E178A26801EB410102EB411C9CF80A1087
:1030C000C90706FB00F115D009FB00F26843C317DE
:1030D00000EB1360C0F30723D01702EB1060C0F3BE
:1030E0000722C81701EB1060C0F30721BCF80400E9
:1030F000384416E009FB00F805FB00F2D01702EB9C
:103100001060C0F307234FEAE87008EB1060C0F3CB
:103110000722C81701EB1060C0F30721BCF80600B6
:10312000C01B00B2FEF7C0FC7F1CBFB2E078A168F4
:1031300000EB400001EB4010C2888388D21A521C79
:10314000BA42AEDCE27802EB420201EB4212127CA0
:10315000521CD2B20261E07800EB400001EB40105B
:10316000818A0160BDE8F0870800002070B5424CFC
:10317000E078A16800EB400001EB4010C188808836
:10318000081A85B226E0817AC9070FD0C088401B93
:10319000401C00B2FEF734FC0146E078A26800EB68
:1031A000400002EB4010C088401B0EE08188681E82
:1031B000084400B2FEF724FC0146E078A26800EB68
:1031C000400002EB40108088284400B2FEF74EFC1D
:1031D0006D1EADB2E078A16800EB400001EB40103D
:1031E000002DD0D10169A1BB90F85700FEF74EFF2A
:1031F000E17801EB4102A16801EB421282F857002D
:10320000E27802EB420201EB4211897AC9070BD046
:10321000FEF75BFD0146E078A26800EB400002EBA0
:103220004010B0F906000AE0FEF74FFD0146E078D5
:10323000A26800EB400002EB4010B0F90400FEF77A
:1032400015FCE078A16800EB400001EB401000693C
:1032500078B10021E07800EB4002A06800EB421258
:103260001161E17801EB410100EB4110818A0160BD
:1032700070BD0121EEE7000008000020FF210804D6
:1032800000F08CB970B5284CE078A16800EB4000E4
:1032900001EB4010C2888388D21A4FF0FF3303EB52
:1032A000420203699A4201D200220261E07800EBF7
:1032B000400001EB4010858805E0C96928B2FEF79F
:1032C000D5FB6D1CADB2E078A16800EB400001EBCE
:1032D0004011C888A842F0D2E078A26800EB400014
:1032E00002EB40108A88C3880D69981A281A00D505
:1032F00040428D7A8969ED0701D0181A00E0104428
:1033000000B2FEF7B3FBE07800EB4001A06800EBF1
:1033100041110A69521C0A61E17801EB410100EB9D
:103320004110818A016070BD0800002070B5214CF9
:10333000E078A16800EB400001EB4010C168A9B93A
:10334000C5880AE0FCF710FFC0B2FEF7BEFC0146DC
:1033500028B2FEF78BFB6D1CADB2E078A16800EBE4
:10336000400001EB4010C088A842EBD2FCF7FCFE05
:10337000C0B2FEF7AAFC0546FCF7F6FEE178A268AB
:1033800001EB410102EB4111CA888988521A521C93
:1033900090FBF2F302FB1300084400B22946FEF74B
:1033A00065FBE078A16800EB400001EB4010818AEA
:1033B000016070BD0800002070B51A4CE078A1686B
:1033C00000EB400001EB40118888B1F85820C96932
:1033D000104400B2FEF74AFBFCF7C6FEE178A26893
:1033E00001EB410102EB4111CB888D885B1B5B1C1B
:1033F00090FBF3F503FB1500A1F85800E17801EB11
:10340000410102EB41118A888969104400B2FEF73C
:103410002DFBE078A16800EB400001EB4010818AB1
:10342000016070BD0800002070B5104CE078A16804
:1034300000EB400001EB4010858805E0C16B28B22D
:10344000FEF722FB6D1CADB2E078A16800EB4000F6
:1034500001EB4010C188A942F0D2E178A26801EBEB
:10346000410102EB4111898A016070BD0800002012
:1034700005480122C178806801EB410100EB411051
:10348000C1698069FEF73EBB080000200B4B10B5F8
:10349000D878996800EB400001EB4010007BFEF704
:1034A00014FCD9789A6801EB410102EB4111012229
:1034B000C969BDE81040FEF725BB000008000020E8
:1034C0000548C178806801EB410100EB4110C169FA
:1034D000806900F0ABB8000008000020094810B572
:1034E000C178806801EB410100EB4111087C401C70
:1034F000C0B20861FEF7E9FBBDE81040002100F012
:1035000095B80000080000200548C178806801EBEC
:10351000410100EB4110183007C800F051B900001C
:10352000080000200548C178806801EB410100EBEC
:103530004110C169806900F091B9000008000020C5
:103540000448C178806801EB410100EB41108069BB
:1035500000F0DCB90800002010B5FCF705FEC0B291
:10356000FEF7B3FBBDE8104000F0D0B910B5FCF792
:10357000FBFDC0B2FEF7A9FB0549CA78896802EBDA
:10358000420201EB4211C969BDE8104000F066B982
:1035900008000020012000F091B800002DE9F04162
:1035A0000F46064600241D4D17E0037C807A234415
:1035B00003F00303022B4FEAC07004D220B9081BAA
:1035C00000B2314605E008B11019F9E7081B00B256
:1035D0003946FEF74BFA641CA4B2E878AB6800EBFE
:1035E000400003EB4010C1888288A1EB020C0CF173
:1035F000010CA445D9DCE97801EB410103EB411151
:10360000097C491C01F003010161E87800EB4000EE
:1036100003EB4010818A0160BDE8F08108000020C2
:103620000149085C70470000683900082DE9F04145
:10363000214C07468846E078A16800EB400001EB8A
:1036400040100326C1680025B1FBF6F206FB1211FB
:10365000C1601BE0B5FBF6F3D0F80CC006FB1353BA
:10366000807A63454FEAC07006D108B1481B00E07C
:10367000501900B2394605E008B1481B00E0501966
:1036800000B24146FEF7F2F96D1CADB2E078A168D8
:1036900000EB400001EB4010C18882888B1A5B1C54
:1036A000AB42D7DCE178A26801EB410102EB4111AA
:1036B000898A0160BDE8F0810800002030B589B03A
:1036C00005463E4C04A903A8CDE90001E078A168B5
:1036D00000EB400001EB401002AB90F83E2090F868
:1036E0003D1090F83C00FEF74DF806A805A9CDE97D
:1036F0000010E078A16800EB400001EB4010007C76
:103700003DB19DF80C1007AB081AC1B29DF810200E
:1037100006E09DF8101007AB081A9DF80C10C2B215
:10372000BDF80800FDF702FF9DF818309DF8142041
:103730009DF81C10E078FEF7A1F8E07800EB40015E
:10374000A06800EB411191F85A20D20704D00A6911
:10375000CAB1521E0A6119E00A6901234DB19DF8F0
:103760000C50AA4202D2521C0A6110E081F85A3071
:103770000DE09DF81050AA4202D2521C0A610FE0DF
:1037800081F85A300CE0002281F85A2045B1E178E6
:103790009DF80C2001EB410100EB4110818A07E00C
:1037A000E1789DF8102001EB410100EB4110818A86
:1037B0005200B1FBF2F1016009B030BD08000020F9
:1037C0002DE9F047244C07468946E078A16800EBD4
:1037D000400001EB4010062100699046B0FBF1F279
:1037E00001FB1205002618E0052D01D9002502E095
:1037F0004146022D01D2394602E0042D00D249464D
:10380000807AC00701D0981900E0901B00B2FEF743
:103810002DF9761C6D1CB6B2ADB2E078A16800EB54
:10382000400001EB4010C2888388A2EB030C0CF12E
:10383000010CB445D8DCE27802EB420201EB421203
:103840001269521C0261E07800EB400001EB40106D
:10385000818A0160BDE8F087080000202DE9F04171
:10386000294C06460F46E078A16800EB400001EBCA
:1038700040100169F9B9858805E0394628B2FEF79C
:10388000F5F86D1CADB2E078A16800EB400001EBEB
:103890004010C088A842F0D2FCF766FC042190FBDF
:1038A000F1F201FB1200E178A26801EB410102EBA9
:1038B0004111401C0861FCF757FC0146E078A26802
:1038C00000EB400002EB4010C2888088121A521CA4
:1038D00091FBF2F302FB1311084400B23146FEF7EC
:1038E000C5F8E07800EB4001A06800EB41110A69DF
:1038F000521E0A61E17801EB410100EB4110818A1F
:103900000160BDE8F08100000800002070B50546A8
:10391000FEF740FAFCF728FC032190FBF1F201FBD3
:103920001200104CA8B9FCF71FFC0146E078A26811
:1039300000EB400002EB4010C2888088121A521C33
:1039400091FBF2F302FB1311084400B22946FEF783
:103950008DF8E078A16800EB400001EB4010818A0F
:10396000016070BD08000020808386898C8F92954D
:10397000989B9EA2A5A7AAADB0B3B6B9BCBEC1C460
:10398000C6C9CBCED0D3D5D7DADCDEE0E2E4E6E8B8
:10399000EAEBEDEEF0F1F3F4F5F6F8F9FAFAFBFCE8
:1039A000FDFDFEFEFEFFFFFFFFFFFFFFFEFEFEFD33
:1039B000FDFCFBFAFAF9F8F6F5F4F3F1F0EEEDEBB5
:1039C000EAE8E6E4E2E0DEDCDAD7D5D3D0CECBC954
:1039D000C6C4C1BEBCB9B6B3B0ADAAA7A5A29E9BD2
:1039E0009895928F8C898683807C797673706D6AC6
:1039F0006764615D5A5855524F4C494643413E3BBE
:103A0000393634312F2C2A282523211F1D1B191745
:103A1000151412110F0E0C0B0A09070605050403F5
:103A2000020201010100000000000000010101028A
:103A300002030405050607090A0B0C0E0F111214E8
:103A40001517191B1D1F212325282A2C2F31343629
:103A5000393B3E414346494C4F5255585A5D61648B
:103A6000676A6D707376797C0000000000000000CA
:103A70000000000000000000000000000000000046
:103A80000101010101010101010101010202020222
:103A900002020202030303030303040404040505F2
:103AA00005050506060606070707080808090909A7
:103AB0000A0A0A0B0B0B0C0C0D0D0D0E0E0F0F103E
:103AC00010111112121313141415151616171818B5
:103AD00019191A1B1B1C1D1D1E1F1F20212222230A
:103AE000242526262728292A2A2B2C2D2E2F303133
:103AF00032333435363738393A3B3C3D3E3F40412E
:103B0000424445464748494B4C4D4E5051525455FE
:103B10005658595A5C5D5E606163646667696A6C99
:103B20006D6F7072737577787A7C7D7F8182848601
:103B300088898B8D8F91929496989A9C9EA0A2A42E
:103B4000A6A8AAACAEB0B2B4B6B8BABCBFC1C3C521
:103B5000C7CACCCED1D3D5D7DADCDFE1E3E6E8EBD8
:103B6000EDF0F2F5F7FAFCFF000101010203040693
:103B70000002030808080808000000000000000018
:103B80000102030406070809A83B00080000002002
:103B900018010000E41A0008C03C000818010020C9
:103BA00028070000F41A00080000000000000000D0
:103BB00000000000000000000000000029340008A0
:103BC00095350008ED210008F521000811220008B4
:103BD000713400088D34000845220008352700089C
:103BE00051270008DD270008F92700086D27000885
:103BF000D5260008153000082D330008192E0008BE
:103C0000312F0008A12F000835290008853200084F
:103C10007D280008C1340008DD3400087D3000082C
:103C2000253500086D350008413500085935000874
:103C3000B9330008052A0008D92A0008692E0008AF
:103C4000A5260008512300085126000899250008E0
:103C5000712300085D240008DD250008F522000816
:103C600011230008613000087D3200086D31000822
:103C7000612D000815280008D9290008F12900083D
:103C80000D2E0008C5290008D1290008CB290008FD
:103C9000C5260008C92A0008D121000809350008F6
:103CA0009D2B000801000000100000000000000033
:103CB0000024F400000000000000000000000000EC
:0400000508000131BD
:00000001FF
